:100EB7000A3040792430191202780010073EBFDF4C
:050EC700EFF7FBFD7ECA
:100E540075F00A84743025F0F8E6F5807F057E008D
:0B0E6400EF1FAC0670011E4C70F62260
:100B9300120F44120F0575100075110075120975B7
:100BA300130075140075150A75160075170075186E
:100BB3000C7B007A007908120800C2B5E50A120E10
:100BC30054D2B5C2B4E50A75F00A842430120E5C1F
:100BD300D2B4C2B3E509120E54D2B3C2B2E5097559
:100BE300F00A842430120E5CD2B2C2B1E508120EB0
:100BF30054D2B1C2B0E50875F00A842430120E5CF9
:050C0300D2B0020B99C4
:100EE300EF3392A7EFA2E692A6A2E592A5A2E4921F
:020EF300A42237
:070E8800120EE3D2A2C2A288
:100E8F00EFA2E392A7A2E292A6A2E192A51392A4E7
:010E9F002230
:070F2100AE071FEE70FA227B
:100C7100C2A0C2A27F147E00120E157F03120E8F36
:100C8100D2A2C2A27F057E00120E157F03120E8F23
:100C9100D2A2C2A27F64120F217F03120E8FD2A2B1
:100CA100C2A27F017E00120E157F02120E8FD2A208
:100CB100C2A21F7E00120E157F28120DD57F0C12C5
:0C0CC1000DD57F01120DD57F06020DD568
:100DD500AE07C2A0120E88D2A2C2A2EF24FE600303
:100DE5000470077F027E00020E157F25120F212257
:100EF500AE07D2A0120E88D2A2C2A27F29020F216C
:020EA0008B6B5A
:100EA200BF01047F8080027FC0ED142FFF120DD599
:050EB200AF6B020EF51C
:060DF5008B628A63896431
:100DFB00E4FDAB62AA63A9648D827583001209C6F8
:090E0B00FF6006120EF50D80E9EE
:010E140022BB
:060E35008B658A668967E7
:100E3B00BF01047F8080027FC0ED142FFF120DD500
:090E4B00AB65AA66A967020DF56A
:060D64008B688A69896AB0
:100D6A00EF75F008A42440FF120DD5E4FDAB68AA84
:100D7A0069A96A8D827583001209C6FF120EF50DE4
:030D8A00BD08EAB7
:010D8D002243
:100E1500E4FDFCC3ED9FEC9E5015E4FBFA0BBB0013
:0F0E2500010AEB647C4A70F50DBD00010C80E4FE
:010E3400229B
:050F4400D290D29122C1
:070F2800D290C291C2902299
:0C0F1400D291D290A2919201C290A20151
:010F200022AE
:100ECD00E4FEEF339291D290C290EF25E0FF0EBE7B
:050EDD0008F0120F14E3
:010EE20022ED
:070F2F00C291D290C2902292
:070F3600D291D290C290227B
:100DB200E4FFFED291D290EF25E0FF30910343078A
:100DC20001C2900EBE08EC300105120F2F800312F3
:020DD2000F36DA
:010DD40022FC
:070F3D00C291D290D2912273
:0F0F0500E4FF120D8EAD0753057FE4FF020E6F60
:100E6F008F0D8D0E120F287FD0120ECDAF0D120EDB
:090E7F00CDAF0E120ECD020F3DA5
:020D8E008F0DC7
:100D9000120F287FD0120ECDAF0D120ECD120F28DC
:100DA0007FD1120ECDC201120DB28F0E120F3DAFC8
:010DB0000E34
:010DB100221F
:060800008B0D8A0E890F2A
:10080600120F287FD0120ECDE4FF120ECD120F2844
:100816007FD1120ECDD201120DB28F1BD201120D55
:10082600B28F1AC201120DB28F19120F3D531B7FE0
:10083600E51BC4540F75F00AA4FFE51B540F2FAB3C
:1008460013AA14A9151209F3531A7FE51AC4540FF3
:1008560075F00AA4FFE51A540F2FAB10AA11A912BE
:100866001209F3E51930E633AB16AA17A918740C6A
:100876001209F3E51930E504D2008002C2005319CB
:100886001FE519C4540F75F00AA4FFE519540F2F7C
:10089600AB0DAA0EA90F1209F3803AAB16AA17A937
:1008A6001874181209F353193FE519C4540F75F05B
:1008B6000AA4FFE519540F2FAB0DAA0EA90F1209B2
:1008C600F3AB0DAA0EA90F1209ADC3940C5004C2C6
:0708D600008002D200A20025
:0108DD0022F8
:100B08008F5D8C5E8D5F8B60E56075F00A84C454E0
:100B1800F0FFE56075F00A84E5F04FF560AE5EAF72
:100B28005F7C007D0A120A27EFC4F8540FC868FBDF
:100B3800EEC454F048FAAE5EAF5F7C007D0A120A3C
:100B480027EC4AF55EED4BF55FE55D75F00A84C468
:100B580054F0FFE55D75F00A84E5F04FF55DE56159
:100B6800B40C09435D40300203435D20120F287F17
:100B7800D0120ECDE4FF120ECDAF60120ECDAF5FD6
:0B0B8800120ECDAF5D120ECD020F3D2E
:1008DE008B458A468947120F287FD0120ECD7F0393
:1008EE00120ECD120F287FD1120ECDD201120DB2E3
:1008FE00AB45AA46A947EF1209F3D201120DB2ABCE
:10090E0048AA49A94AEF1209F3D201120DB2AB4B14
:10091E00AA4CA94DEF1209F3C201120DB2AB4EAAA9
:10092E004FA950EF1209F3120F3DAB45AA46A94746
:10093E001209AD54071209F3AB48AA49A94A120984
:10094E00AD543F1209F3AB48AA49A94A1209ADFFAB
:10095E00C4540F75F00AA4FEEF540F2E1209F3AB18
:10096E004BAA4CA94D1209AD541F1209F3AB4BAA59
:10097E004CA94D1209ADFFC4540F75F00AA4FEEF39
:10098E00540F2E1209F3AB4EAA4FA9501209ADFF08
:0F099E00C4540F75F00AA4FEEF540F2E0209F394
:100C08008F1C8D1D8B1EE51D75F00A84C454F0FFE2
:100C1800E51D75F00A84E5F04FF51DE51E75F00A2F
:100C280084C454F0FFE51E75F00A84E5F04FF51E04
:100C3800E51F75F00A84C454F0FFE51F75F00A84B7
:100C4800E5F04FF51F120F287FD0120ECD7F03124B
:100C58000ECDAF1C120ECDAF1D120ECDAF1E120E53
:090C6800CDAF1F120ECD020F3DAD
:080D28008F518B528A5389544C
:100D3000E4F556120F287FD0120ECDAF51120ECD12
:100D4000E4F556E556C395555017AB52AA53A9542E
:100D50008556827583001209C6FF120ECD05568096
:040D6000E2020F3D5F
:080CCD008F578B588A59895A90
:100CD500120F287FD0120ECDAF57120ECD120F284E
:100CE5007FD1120ECDE4F55CE55B14FFE55CC39F97
:100CF5005019D201120DB2AB58AA59A95A855C8276
:100D0500758300EF120A05055C80DDC201120DB284
:100D1500AB58AA59A95A855C82758300EF120A055A
:030D2500020F3D7D
:03000000020A7C75
:0C0A7C00787FE4F6D8FD75816B020AC398
:1009AD00BB010689828A83E0225002E722BBFE0248
:0909BD00E32289828A83E493227B
:1009C600BB010CE58229F582E5833AF583E02250E6
:1009D60006E92582F8E622BBFE06E92582F8E22230
:0D09E600E58229F582E5833AF583E493224A
:1009F300BB010689828A83F0225002F722BBFE01E3
:020A0300F322DC
:100A0500F8BB010DE58229F582E5833AF583E8F027
:100A1500225006E92582C8F622BBFE05E92582C8D3
:020A2500F222BB
:100A2700BC000BBE0029EF8DF084FFADF022E4CCB3
:100A3700F875F008EF2FFFEE33FEEC33FCEE9DEC7C
:100A4700984005FCEE9DFE0FD5F0E9E4CEFD22EDC2
:100A5700F8F5F0EE8420D21CFEADF075F008EF2F0C
:100A6700FFED33FD4007985006D5F0F222C398FDFD
:050A77000FD5F0EA229A
:100A8800020B93E493A3F8E493A34003F68001F2E6
:100A980008DFF48029E493A3F85407240CC8C3336F
:100AA800C4540F4420C8834004F456800146F6DF3E
:100AB800E4800B0102040810204080900EB7E47E09
:100AC800019360BCA3FF543F30E509541FFEE49333
:100AD800A360010ECF54C025E060A840B8E493A3FA
:100AE800FAE493A3F8E493A3C8C582C8CAC583CA25
:100AF800F0A3C8C582C8CAC583CADFE9DEE780BEDD
:010ECC000025
:00000001FF
